:100000000C9446000C9465000C9465000C946500FB
:100010000C9465000C9465000C9465000C946500CC
:100020000C9465000C9465000C9465000C946500BC
:100030000C9465000C9465000C9465000C946500AC
:100040000C9471030C9465000C94AF030C94650040
:100050000C9465000C9465000C9465000C9465008C
:100060000C9465000C9465000C9465000C9465007C
:100070000C9465000C9465000C945C010C94650074
:100080000C9465000C9465000C94650011241FBE4F
:10009000CFEFD0E1DEBFCDBF11E0A0E0B1E0E4E002
:1000A000FAE000E00BBF02C007900D92A834B10740
:1000B000D9F711E0A8E4B1E001C01D92A739B1075A
:1000C000E1F70E9441040C9400050C9400008F9A03
:1000D000979888EC90E020E931E0F9013197F1F749
:1000E0000197D9F7979A85ED8A95F1F708958F983A
:1000F0008799FECF879BFECF8799FECF0895809189
:10010000480120E030E040EA879BFECF942F9A958B
:10011000F1F7879B03C0880F816001C0880F879922
:10012000FECF2F5F3F4F2830310571F78093480194
:1001300008958091480120E030E040EA879BFECF9F
:10014000942F9A95F1F7879B03C0880F816001C0B7
:10015000880F8799FECF2F5F3F4F2230310571F70F
:1001600080934801089595E3292F2A95F1F7292FC7
:100170002A95F1F7292F2A95F1F7292F2A95F1F7DA
:100180009A95F1F7982F907F956095BB9B7F95BBD3
:100190008295807F856085BB8B7F85BB0895CF93DB
:1001A000DF93EC0103C00E94B3002196888188236D
:1001B000D1F7DF91CF910895982F907F946095BBF0
:1001C0009B7F95BB8295807F846085BB8B7F85BB41
:1001D00085E08A95F1F708951F93182F85E3982FEE
:1001E0009A95F1F7982F9A95F1F7982F9A95F1F73C
:1001F000982F9A95F1F78A95F1F7812F0E94DC00EC
:100200001150123020F480E49FE10197F1F71F9123
:1002100008950F931F93CF93DF938B01880F880F5F
:10022000880F80640E94EC00C0E0D0E0F801EC0F81
:10023000FD1F80810E94B3002196C830D105B1F71F
:10024000DF91CF911F910F910895882349F081305C
:1002500011F4605C05C0823011F4605F01C0605B26
:10026000862F80680E94EC0008958FEF84BB80E6A3
:100270009AEE0197F1F780E30E94DC0080E29EE4B1
:100280000197F1F780E30E94DC0080EA9FE001978C
:10029000F1F782E30E94DC0088E20E94EC0088E033
:1002A0000E94EC0081E00E94EC0086E00E94EC00DD
:1002B0008CE00E94EC0008951F920F920FB60F92EF
:1002C0000BB60F9211248F939F93EF93FF9380911E
:1002D0009C0080937201809172018E3279F080913E
:1002E0007801E82FF0E090917201ED58FE4F908375
:1002F0008F5F80937801109276010DC0809172011A
:100300008E3249F4809178018093770110927801C0
:1003100081E080937601FF91EF919F918F910F90F3
:100320000BBE0F900FBE0F901F901895BF9A0895A7
:100330001BB828E12AB996E090939500109290009E
:1003400087E689B9579A10929B00EAE9F0E020838A
:1003500090939D001092980080939900808180680E
:1003600080830895109271019091710187E8989FA0
:10037000C001112464E873E00E94BC04665F63BDA1
:10038000089584EB809371019091710187E8989FA3
:10039000C001112464E873E00E94BC04665F63BD81
:1003A0000895982F80919B0085FFFCCF90939C002F
:1003B0000895FC0107C080919B0085FFFCCF31961A
:1003C00090939C0090819923B1F708958EE791E076
:1003D0000E94D90180919B0085FFFCCF8EE2809323
:1003E0009C008FE891E00E94D90180919B0085FFDD
:1003F000FCCF8CE280939C0083E891E00E94D901BD
:1004000080919B0085FFFCCF8EE280939C0088E862
:1004100091E00E94D901089580917C0190917D0125
:100420000E94D90108950F931F93CF93DF939C01EE
:100430008B0110926C0110926D0110926E0110925E
:100440006F0110927001C0E0D0E0C901B8010E94B4
:10045000A804FE01E459FE4F80832196C901B8012A
:100460000E94A8049B016115710579F7DF91CF9176
:100470001F910F9108958A3010F4805D0895895C72
:10048000089520EA3FE004C0F9013197F1F70197A0
:100490000097D1F7089535E004C0232F2A95F1F78E
:1004A00001970097D1F708951F93162F6AE070E027
:1004B0000E941302112381F1163010F015E002C0E2
:1004C000153049F4809170018A3010F4805D01C0CC
:1004D000895C0E94B300143048F080916F018A302B
:1004E00010F4805D01C0895C0E94B300133048F0B5
:1004F00080916E018A3010F4805D01C0895C0E9499
:10050000B300113049F080916D018A3010F4805DA4
:1005100001C0895C0E94B30080916C018A3010F4A4
:10052000805D01C0895C0E94B3001F9108956AE05C
:1005300070E00E94130280916E018A3010F4805D99
:1005400001C0895C0E94B30080916D018A3010F473
:10055000805D01C0895C0E94B30080E091E00E9450
:10056000CF0080916C018A3010F4805D01C0895CFD
:100570000E94B30008950E9467000E9477000E94C5
:100580007F00809395010E947F0080938D010E94DF
:100590007F00809394010E947F00809396010E94C7
:1005A0007F0080938E0140918D012091950130E074
:1005B000240F311D40919401240F311D409196016B
:1005C000240F311D90E02817390739F080E060E0F2
:1005D0000E94250182E091E07DC081E00E94EC0054
:1005E00080E060E00E94250188E091E00E94CF0059
:1005F00080E068E00E9425018CE091E00E94CF003D
:1006000081E060E00E94250181E191E00E94CF003D
:100610008091950190E063E871E04AE050E00E942B
:10062000CF0480E063E00E94250183E891E00E940E
:10063000CF0080E065E00E94250180E091E00E940B
:10064000CF0080918D0190E068E871E04AE050E0D1
:100650000E94CF0480E066E00E94250188E891E0D6
:100660000E94CF0080E067E00E94250187E191E0D1
:100670000E94CF008091940190E06EE771E04AE023
:1006800050E00E94CF0480E06BE00E9425018EE7DD
:1006900091E00E94CF0080E06DE00E94250180E0A3
:1006A00091E00E94CF008091960190E06FE871E0A8
:1006B0004AE050E00E94CF0480E06EE00E942501F5
:1006C0008FE891E00E94CF0080E06FE00E9425015A
:1006D00089E191E00E94CF0080E49CE90197F1F765
:1006E00008951F920F920FB60F920BB60F9211241E
:1006F0002F933F934F935F936F937F938F939F932A
:10070000AF93BF93EF93FF9384E682BF80917A010A
:1007100090917B01019690937B0180937A01845F95
:10072000914051F40E94BB020E94E6010E940C021B
:1007300010927B0110927A01FF91EF91BF91AF91DE
:100740009F918F917F916F915F914F913F912F91E9
:100750000F900BBE0F900FBE0F901F9018951F9219
:100760000F920FB60F920BB60F9211242F933F9357
:100770004F935F936F937F938F939F93AF93BF93A9
:10078000EF93FF93809179019CB1E82FF0E0E75B54
:10079000FE4F90838F5F80937901803218F18091B2
:1007A00049018234E9F480914A018D34C9F4909171
:1007B000570180E020915801820F911D90937D0197
:1007C00080937C0169E671E04AE050E00E94CF042A
:1007D00081E065E00E94250189E691E00E94CF005A
:1007E00010927901FF91EF91BF91AF919F918F91FD
:1007F0007F916F915F914F913F912F910F900BBE21
:100800000F900FBE0F901F9018950E94350181E048
:100810000E94EC0080E060E00E94250188E091E009
:100820000E94CF0080E068E00E9425018CE091E00A
:100830000E94CF0081E060E00E94250181E191E00B
:100840000E94CF0013BE8CE982BF81E087BF83B7CF
:10085000876083BF85B5886685BD85B5856085BDA4
:100860008AE5809371019091710187E8989FC0019A
:10087000112464E873E00E94BC04665F63BD789451
:100880000895BF9A0E9405040E9498018091760104
:100890008130E1F730E040E020E018C0A22FB0E066
:1008A000FD01ED58FE4F9081FD01E05CFE4F80811F
:1008B000981709F43F5FFD01ED58FE4F9081AD5B45
:1008C000BE4F8C91981709F44F5F2F5F809177018D
:1008D000281720F3323011F481E005C0433011F0C5
:1008E0008EEF01C082E010927601813061F40E94A7
:1008F000B20181E00E94EC0080E060E00E942501EE
:100900008BE191E022C0823061F40E94C10181E05C
:100910000E94EC0080E060E00E94250185E291E009
:1009200014C08E3F09F0B2CF81E00E94EC0080E05D
:1009300060E00E94250180E391E00E94CF0081E009
:1009400060E00E94250183E791E00E94CF009ECFE6
:10095000AA1BBB1B51E107C0AA1FBB1FA617B707E5
:1009600010F0A61BB70B881F991F5A95A9F7809501
:100970009095BC01CD01089597FB092E07260AD05A
:1009800077FD04D0E5DF06D000201AF4709561955C
:100990007F4F0895F6F7909581959F4F0895FB013D
:1009A0009F01E8944230C4F04532B4F44A3029F44F
:1009B00097FB1EF4909581959F4F642F77270E9497
:1009C000A804805D8A330CF0895D8193CB01009788
:1009D000A1F716F45DE251931082C9010C94F00462
:1009E000DC01FC01672F71917723E1F7329704C096
:1009F0007C916D9370836291AE17BF07C8F3089521
:040A0000F894FFCF98
:100A04002E004572726F7200484D3D0054503D20D7
:100A140000447573743D00250043005475726E20C4
:100A24004F6E2121005475726E204F66662121009D
:100A3400436F6D6D616E64204572726F7221210087
:080A44006F6E006F6666000092
:00000001FF
