:100000000C9446000C9465000C9465000C946500FB
:100010000C9465000C9465000C9465000C946500CC
:100020000C9465000C9465000C9465000C946500BC
:100030000C9465000C9465000C9465000C946500AC
:100040000C9416020C9465000C9465000C946500E9
:100050000C9465000C9465000C9465000C9465008C
:100060000C9465000C9465000C9465000C9465007C
:100070000C9465000C9465000C9465000C9465006C
:100080000C9465000C9465000C94650011241FBE4F
:10009000CFEFD0E1DEBFCDBF11E0A0E0B1E0E0EEF8
:1000A000F6E000E00BBF02C007900D92A831B10747
:1000B000D9F711E0A8E1B1E001C01D92A933B10761
:1000C000E1F70E9471020C946E030C940000BC9A3C
:1000D000C49808951BB888E18AB986E0809395009A
:1000E0001092900087E689B908958C9A949888ECCC
:1000F00090E020E931E0F9013197F1F70197D9F764
:10010000949A85ED8A95F1F708958C988499FECF9D
:10011000849BFECF8499FECF08958091180120E042
:1001200030E040EA849BFECF942F9A95F1F7849BB0
:1001300003C0880F816001C0880F8499FECF2F5FB4
:100140003F4F2830310571F78093180108955D9B6A
:10015000FECF8CB90895FC0104C05D9BFECF3196A3
:100160008CB980818823C9F7089580E291E00E94CC
:10017000AB005D9BFECF8EE28CB981E391E00E94E3
:10018000AB005D9BFECF8CE28CB985E291E00E94D2
:10019000AB005D9BFECF8EE28CB98AE291E00E94BB
:1001A000AB0008950F931F93CF93DF939C018B01B6
:1001B0001092190110921A0110921B0110921C0149
:1001C00010921D01C0E0D0E0C901B8010E942903CE
:1001D000FE01E75EFE4F80832196C901B8010E94AF
:1001E00029039B016115710579F7DF91CF911F916B
:1001F0000F9108958A3010F4805D0895895C089508
:1002000020EA3FE004C0F9013197F1F70197009728
:10021000D1F7089535E004C0232F2A95F1F701970F
:100220000097D1F708951F93162F6AE070E00E949F
:10023000D200112381F1163010F015E002C0153004
:1002400049F480911D018A3010F4805D01C0895C01
:100250000E948002143048F080911C018A3010F412
:10026000805D01C0895C0E948002133048F080915B
:100270001B018A3010F4805D01C0895C0E948002FD
:10028000113049F080911A018A3010F4805D01C06C
:10029000895C0E948002809119018A3010F4805D8F
:1002A00001C0895C0E9480021F9108956AE070E09D
:1002B0000E94D20080911B018A3010F4805D01C041
:1002C000895C0E94800280911A018A3010F4805D5E
:1002D00001C0895C0E94800280E091E00E949C0243
:1002E000809119018A3010F4805D01C0895C0E9400
:1002F000800208950E9475000E9485000E948D0072
:10030000809337010E948D0080932F010E948D0001
:10031000809336010E948D00809338010E948D00E9
:100320008093300120913701622F70E020912F01DE
:10033000AB01420F511D9A0140913601240F311D2E
:1003400040913801240F311D90E02817390739F00A
:1003500080E060E00E94F20282E091E060C0CB01A8
:1003600065E271E04AE050E00E943D0380E064E015
:100370000E94F20285E291E00E949C0280E066E029
:100380000E94F20280E091E00E949C0280912F0185
:1003900090E06AE271E04AE050E00E943D0380E0B4
:1003A00067E00E94F2028AE291E00E949C0280E0F3
:1003B00068E00E94F20288E091E00E949C02809135
:1003C000360190E060E271E04AE050E00E943D03B7
:1003D00081E064E00E94F20280E291E00E949C02CF
:1003E00081E066E00E94F20280E091E00E949C02BF
:1003F0008091380190E061E371E04AE050E00E94B2
:100400003D0381E067E00E94F20281E391E00E94F7
:100410009C0281E068E00E94F2028AE091E00E9482
:100420009C0280E49CE90197F1F708951F920F92D6
:100430000FB60F920BB60F9211242F933F934F9349
:100440005F936F937F938F939F93AF93BF93EF933C
:10045000FF9384E682BF80911E0190911F01019657
:1004600090931F0180931E01845F914041F410928C
:100470001F0110921E010E947A010E94B500FF9197
:10048000EF91BF91AF919F918F917F916F915F910C
:100490004F913F912F910F900BBE0F900FBE0F9079
:1004A0001F9018950E94020381E00E94B90280E02B
:1004B00060E00E94F2028CE091E00E949C0281E0E8
:1004C00060E00E94F20281E191E00E949C0213BE72
:1004D0008CE982BF81E087BF789483B7876083BF50
:1004E0000895BC9AC4980E9452021BB888E18AB948
:1004F00086E0809395001092900087E689B9FFCF3F
:1005000095E3292F2A95F1F7292F2A95F1F7292F1D
:100510002A95F1F7292F2A95F1F79A95F1F7982F57
:10052000907F956095BB9B7F95BB8295807F856012
:1005300085BB8B7F85BB0895CF93DF93EC0103C010
:100540000E948002219688818823D1F7DF91CF9184
:100550000895982F907F946095BB9B7F95BB829563
:10056000807F846085BB8B7F85BB85E08A95F1F7B2
:1005700008951F93182F85E3982F9A95F1F7982FD8
:100580009A95F1F7982F9A95F1F7982F9A95F1F798
:100590008A95F1F7812F0E94A9021150123020F4A0
:1005A00080E49FE10197F1F71F9108950F931F9346
:1005B000CF93DF938B01880F880F880F80640E9490
:1005C000B902C0E0D0E0F801EC0FFD1F80810E946D
:1005D00080022196C830D105B1F7DF91CF911F91EC
:1005E0000F910895882349F0813011F4605C05C0B3
:1005F000823011F4605F01C0605B862F80680E94CA
:10060000B90208958FEF84BB80E69AEE0197F1F767
:1006100080E30E94A90280E29EE40197F1F780E363
:100620000E94A90280EA9FE00197F1F782E30E940D
:10063000A90288E20E94B90288E00E94B90281E022
:100640000E94B90286E00E94B9028CE00E94B902C1
:100650000895AA1BBB1B51E107C0AA1FBB1FA61709
:10066000B70710F0A61BB70B881F991F5A95A9F75B
:1006700080959095BC01CD010895FB019F01E89400
:100680004230C4F04532B4F44A3029F497FB1EF4EA
:10069000909581959F4F642F77270E942903805D55
:1006A0008A330CF0895D8193CB010097A1F716F492
:1006B0005DE251931082C9010C945E03DC01FC01E0
:1006C000672F71917723E1F7329704C07C916D9386
:1006D00070836291AE17BF07C8F30895F894FFCFF7
:1006E0002E004572726F72002500430048554D3D43
:0806F00000544D503D200000B4
:00000001FF
