:100000000C9446000C9465000C9465000C946500FB
:100010000C9465000C9465000C9465000C946500CC
:100020000C9465000C9465000C9465000C946500BC
:100030000C9465000C9465000C9465000C946500AC
:100040000C9484030C9465000C94C0030C9465001C
:100050000C9465000C9465000C9465000C9465008C
:100060000C9465000C9465000C9465000C9465007C
:100070000C9465000C9465000C945C010C94650074
:100080000C9465000C9465000C94650011241FBE4F
:10009000CFEFD0E1DEBFCDBF11E0A0E0B1E0E6E5FB
:1000A000FAE000E00BBF02C007900D92A834B10740
:1000B000D9F711E0A8E4B1E001C01D92A939B10758
:1000C000E1F70E946A040C9429050C9400008F9AB1
:1000D000979888EC90E020E931E0F9013197F1F749
:1000E0000197D9F7979A85ED8A95F1F708958F983A
:1000F0008799FECF879BFECF8799FECF0895809189
:10010000480120E030E040EA879BFECF942F9A958B
:10011000F1F7879B03C0880F816001C0880F879922
:10012000FECF2F5F3F4F2830310571F78093480194
:1001300008958091480120E030E040EA879BFECF9F
:10014000942F9A95F1F7879B03C0880F816001C0B7
:10015000880F8799FECF2F5F3F4F2230310571F70F
:1001600080934801089595E3292F2A95F1F7292FC7
:100170002A95F1F7292F2A95F1F7292F2A95F1F7DA
:100180009A95F1F7982F907F956095BB9B7F95BBD3
:100190008295807F856085BB8B7F85BB0895CF93DB
:1001A000DF93EC0103C00E94B3002196888188236D
:1001B000D1F7DF91CF910895982F907F946095BBF0
:1001C0009B7F95BB8295807F846085BB8B7F85BB41
:1001D00085E08A95F1F708951F93182F85E3982FEE
:1001E0009A95F1F7982F9A95F1F7982F9A95F1F73C
:1001F000982F9A95F1F78A95F1F7812F0E94DC00EC
:100200001150123020F480E49FE10197F1F71F9123
:1002100008950F931F93CF93DF938B01880F880F5F
:10022000880F80640E94EC00C0E0D0E0F801EC0F81
:10023000FD1F80810E94B3002196C830D105B1F71F
:10024000DF91CF911F910F910895882349F081305C
:1002500011F4605C05C0823011F4605F01C0605B26
:10026000862F80680E94EC0008958FEF84BB80E6A3
:100270009AEE0197F1F780E30E94DC0080E29EE4B1
:100280000197F1F780E30E94DC0080EA9FE001978C
:10029000F1F782E30E94DC0088E20E94EC0088E033
:1002A0000E94EC0081E00E94EC0086E00E94EC00DD
:1002B0008CE00E94EC0008951F920F920FB60F92EF
:1002C0000BB60F9211248F939F93EF93FF9380911E
:1002D0009C0080937401809174018E3279F080913A
:1002E0007A01E82FF0E090917401EB58FE4F908373
:1002F0008F5F80937A01109278010DC08091740114
:100300008E3249F480917A018093790110927A01BA
:1003100081E080937801FF91EF919F918F910F90F1
:100320000BBE0F900FBE0F901F901895BF9A0895A7
:100330001BB828E12AB996E090939500109290009E
:1003400087E689B9579A10929B00EAE9F0E020838A
:1003500090939D001092980080939900808180680E
:1003600080830895109273019091730187E8989F9C
:10037000C001112464E873E00E94E504665F63BD78
:10038000089584EB809373019091730187E8989F9F
:10039000C001112464E873E00E94E504665F63BD58
:1003A0000895982F80919B0085FFFCCF90939C002F
:1003B0000895FC0107C080919B0085FFFCCF31961A
:1003C00090939C0090819923B1F7089580E891E083
:1003D0000E94D90180919B0085FFFCCF8EE2809323
:1003E0009C0081E991E00E94D90180919B0085FFEA
:1003F000FCCF8CE280939C0085E891E00E94D901BB
:1004000080919B0085FFFCCF8EE280939C008AE860
:1004100091E00E94D90180919B0085FFFCCF8CE286
:1004200080939C008BE691E00E94D90180919B0013
:1004300085FFFCCF8FE280939C0008950F931F935C
:10044000CF93DF939C018B0110926E0110926F018C
:10045000109270011092710110927201C0E0D0E010
:10046000C901B8010E94D104FE01E259FE4F808308
:100470002196C901B8010E94D1049B016115710543
:1004800079F7DF91CF911F910F9108958A3010F481
:10049000805D0895895C089520EA3FE004C0F90179
:1004A0003197F1F701970097D1F7089535E004C02F
:1004B000232F2A95F1F701970097D1F708951F93FD
:1004C000162F6AE070E00E941E02112381F116309F
:1004D00010F015E002C0153049F4809172018A30A5
:1004E00010F4805D01C0895C0E94B300143048F0B4
:1004F000809171018A3010F4805D01C0895C0E9496
:10050000B300133048F0809170018A3010F4805DA0
:1005100001C0895C0E94B300113049F080916F01E5
:100520008A3010F4805D01C0895C0E94B300809124
:100530006E018A3010F4805D01C0895C0E94B300B6
:100540001F9108956AE070E00E941E028091700180
:100550008A3010F4805D01C0895C0E94B3008091F4
:100560006F018A3010F4805D01C0895C0E94B30085
:1005700080E091E00E94CF0080916E018A3010F4FB
:10058000805D01C0895C0E94B30008950E946700ED
:100590000E9477000E947F00809397010E947F0055
:1005A00080938F010E947F00809396010E947F00BC
:1005B000809398010E947F008093900140918F0169
:1005C0002091970130E0240F311D40919601240FB6
:1005D000311D40919801240F311D90E028173907F3
:1005E00039F080E060E00E94250182E091E085C062
:1005F00081E00E94EC0080E060E00E94250188E03C
:1006000091E00E94CF0080E068E00E9425018CE02C
:1006100091E00E94CF0081E060E00E94250181E12D
:1006200091E00E94CF0081E065E00E9425018BE609
:1006300091E00E94CF008091970190E065E871E021
:100640004AE050E00E94F80480E063E00E94250147
:1006500085E891E00E94CF0080E065E00E942501DE
:1006600080E091E00E94CF0080918F0190E06AE8E5
:1006700071E04AE050E00E94F80480E066E00E94E9
:1006800025018AE891E00E94CF0080E067E00E94A7
:10069000250187E191E00E94CF008091960190E0D2
:1006A00060E871E04AE050E00E94F80480E06BE00E
:1006B0000E94250180E891E00E94CF0080E06DE07B
:1006C0000E94250180E091E00E94CF008091980176
:1006D00090E061E971E04AE050E00E94F80480E0B7
:1006E0006EE00E94250181E991E00E94CF0080E048
:1006F0006FE00E94250189E191E00E94CF0080E433
:100700009CE90197F1F708951F920F920FB60F928F
:100710000BB60F9211242F933F934F935F936F93D8
:100720007F938F939F93AF93BF93EF93FF9384E651
:1007300082BF80917C0190917D01019690937D0113
:1007400080937C01845F914041F40E94C6020E9424
:10075000E60110927D0110927C01FF91EF91BF9113
:10076000AF919F918F917F916F915F914F913F9149
:100770002F910F900BBE0F900FBE0F901F901895EA
:100780001F920F920FB60F920BB60F9211242F9358
:100790003F934F935F936F937F938F939F93AF9309
:1007A000BF93EF93FF9380917B019CB1E82FF0E022
:1007B000E75BFE4F90838F5F80937B018032D8F19F
:1007C000809149018234A9F580914A018D3489F5DF
:1007D0009091570180E020915801AC01420F511DCA
:1007E0009A0150937F0140937E014091690150919D
:1007F0006A01C901841B950B0B9728F050937F0168
:1008000040937E0104C030936A0120936901809176
:100810007E0190917F016BE671E04AE050E00E941A
:10082000F80481E065E00E9425018BE691E00E94DA
:10083000CF0010927B01FF91EF91BF91AF919F91FB
:100840008F917F916F915F914F913F912F910F9079
:100850000BBE0F900FBE0F901F9018950E94350190
:1008600081E00E94EC0080E060E00E94250188E0C9
:1008700091E00E94CF0080E068E00E9425018CE0BA
:1008800091E00E94CF0081E060E00E94250181E1BB
:1008900091E00E94CF0013BE8CE982BF81E087BF48
:1008A00083B7876083BF85B5886685BD85B585605C
:1008B00085BD8AE5809373019091730187E8989FC5
:1008C000C001112464E873E00E94E504665F63BD23
:1008D00078940895BF9A0E942E040E9498018091F6
:1008E00078018130E1F730E040E020E018C0A22F2D
:1008F000B0E0FD01EB58FE4F9081FD01E05CFE4F42
:100900008081981709F43F5FFD01EB58FE4F9081FD
:10091000AD5BBE4F8C91981709F44F5F2F5F8091AC
:100920007901281720F3323011F481E005C04330FB
:1009300011F08EEF01C082E010927801813061F4F5
:100940000E94B20181E00E94EC0080E060E00E9421
:1009500025018BE191E022C0823061F40E94C10147
:1009600081E00E94EC0080E060E00E94250185E2C9
:1009700091E014C08E3F09F0B2CF81E00E94EC00FC
:1009800080E060E00E94250180E391E00E94CF00BA
:1009900081E060E00E94250185E791E00E94CF00A0
:1009A0009ECFAA1BBB1B51E107C0AA1FBB1FA617E6
:1009B000B70710F0A61BB70B881F991F5A95A9F708
:1009C00080959095BC01CD01089597FB092E0726CF
:1009D0000AD077FD04D0E5DF06D000201AF4709528
:1009E00061957F4F0895F6F7909581959F4F0895F3
:1009F000FB019F01E8944230C4F04532B4F44A3020
:100A000029F497FB1EF4909581959F4F642F7727CB
:100A10000E94D104805D8A330CF0895D8193CB0103
:100A20000097A1F716F45DE251931082C9010C946E
:100A30001905DC01FC01672F71917723E1F73297EB
:100A400004C07C916D9370836291AE17BF07C8F3A9
:060A50000895F894FFCFA9
:100A56002E004572726F7200484D3D0054503D2085
:100A660000447573743D00250043005475726E2072
:100A76004F6E2121005475726E204F66662121004B
:100A8600436F6D6D616E64204572726F7221210035
:080A96006F6E006F6666000040
:00000001FF
