:100000000C9446000C9465000C9465000C946500FB
:100010000C9465000C9465000C9465000C946500CC
:100020000C9465000C9465000C9465000C946500BC
:100030000C9465000C9465000C9465000C946500AC
:100040000C9495030C9465000C94D1030C946500FA
:100050000C9465000C9465000C9465000C9465008C
:100060000C9465000C9465000C9465000C9465007C
:100070000C9465000C9465000C945C010C94650074
:100080000C9465000C9465000C94650011241FBE4F
:10009000CFEFD0E1DEBFCDBF11E0A0E0B1E0E8EAF4
:1000A000FAE000E00BBF02C007900D92A834B10740
:1000B000D9F711E0A8E4B1E001C01D92AA39B10757
:1000C000E1F70E9484040C9452050C9400008F9A6E
:1000D000979888EC90E020E931E0F9013197F1F749
:1000E0000197D9F7979A85ED8A95F1F708958F983A
:1000F0008799FECF879BFECF8799FECF0895809189
:10010000480120E030E040EA879BFECF942F9A958B
:10011000F1F7879B03C0880F816001C0880F879922
:10012000FECF2F5F3F4F2830310571F78093480194
:1001300008958091480120E030E040EA879BFECF9F
:10014000942F9A95F1F7879B03C0880F816001C0B7
:10015000880F8799FECF2F5F3F4F2230310571F70F
:1001600080934801089595E3292F2A95F1F7292FC7
:100170002A95F1F7292F2A95F1F7292F2A95F1F7DA
:100180009A95F1F7982F907F956095BB9B7F95BBD3
:100190008295807F856085BB8B7F85BB0895CF93DB
:1001A000DF93EC0103C00E94B3002196888188236D
:1001B000D1F7DF91CF910895982F907F946095BBF0
:1001C0009B7F95BB8295807F846085BB8B7F85BB41
:1001D00085E08A95F1F708951F93182F85E3982FEE
:1001E0009A95F1F7982F9A95F1F7982F9A95F1F73C
:1001F000982F9A95F1F78A95F1F7812F0E94DC00EC
:100200001150123020F480E49FE10197F1F71F9123
:1002100008950F931F93CF93DF938B01880F880F5F
:10022000880F80640E94EC00C0E0D0E0F801EC0F81
:10023000FD1F80810E94B3002196C830D105B1F71F
:10024000DF91CF911F910F910895882349F081305C
:1002500011F4605C05C0823011F4605F01C0605B26
:10026000862F80680E94EC0008958FEF84BB80E6A3
:100270009AEE0197F1F780E30E94DC0080E29EE4B1
:100280000197F1F780E30E94DC0080EA9FE001978C
:10029000F1F782E30E94DC0088E20E94EC0088E033
:1002A0000E94EC0081E00E94EC0086E00E94EC00DD
:1002B0008CE00E94EC0008951F920F920FB60F92EF
:1002C0000BB60F9211248F939F93EF93FF9380911E
:1002D0009C0080937401809174018E3279F080913A
:1002E0007A01E82FF0E090917401EB58FE4F908373
:1002F0008F5F80937A01109278010DC08091740114
:100300008E3249F480917A018093790110927A01BA
:1003100081E080937801FF91EF919F918F910F90F1
:100320000BBE0F900FBE0F901F901895BF9A0895A7
:100330001BB828E12AB996E090939500109290009E
:1003400087E689B9579A10929B00EAE9F0E020838A
:1003500090939D001092980080939900808180680E
:100360008083089586E9809373019091730187E8F3
:10037000989FC001112464E873E00E940E05665F37
:1003800063BD08958EE1809373019091730187E8B6
:10039000989FC001112464E873E00E940E05665F17
:1003A00063BD08958AE5809373019091730187E896
:1003B000989FC001112464E873E00E940E05665FF7
:1003C00063BD0895982F80919B0085FFFCCF90938B
:1003D0009C000895FC0107C080919B0085FFFCCF25
:1003E000319690939C0090819923B1F7089581E80C
:1003F00091E00E94EA0180919B0085FFFCCF8EE294
:1004000080939C0082E991E00E94EA0180919B0028
:1004100085FFFCCF8CE280939C0086E891E00E94EF
:10042000EA0180919B0085FFFCCF8EE280939C00C7
:100430008BE891E00E94EA0180919B0085FFFCCF50
:100440008CE280939C008BE691E00E94EA0180910F
:100450009B0085FFFCCF8FE280939C0008950F9353
:100460001F93CF93DF939C018B0110926E0110922A
:100470006F01109270011092710110927201C0E030
:10048000D0E0C901B8010E94FA04FE01E259FE4F12
:1004900080832196C901B8010E94FA049B0161156D
:1004A000710579F7DF91CF911F910F9108958A30EF
:1004B00010F4805D0895895C089520EA3FE004C04F
:1004C000F9013197F1F701970097D1F7089535E0D9
:1004D00004C0232F2A95F1F701970097D1F70895CB
:1004E0001F93162F6AE070E00E942F02112381F102
:1004F000163010F015E002C0153049F480917201F9
:100500008A3010F4805D01C0895C0E94B300143011
:1005100048F0809171018A3010F4805D01C0895CDF
:100520000E94B300133048F0809170018A3010F4BB
:10053000805D01C0895C0E94B300113049F0809158
:100540006F018A3010F4805D01C0895C0E94B300A5
:1005500080916E018A3010F4805D01C0895C0E9438
:10056000B3001F9108956AE070E00E942F0280910D
:1005700070018A3010F4805D01C0895C0E94B30074
:1005800080916F018A3010F4805D01C0895C0E9407
:10059000B30080E091E00E94CF0080916E018A302C
:1005A00010F4805D01C0895C0E94B30008950E9430
:1005B00067000E9477000E947F00809398010E944C
:1005C0007F00809390010E947F00809397010E949A
:1005D0007F00809399010E947F0080939101409158
:1005E00090012091980130E0240F311D4091970136
:1005F000240F311D40919901240F311D90E02817DF
:10060000390739F080E060E00E94250182E091E046
:1006100085C081E00E94EC0080E060E00E9425013E
:1006200088E091E00E94CF0080E068E00E94250110
:100630008CE091E00E94CF0081E060E00E94250103
:1006400081E191E00E94CF0081E065E00E942501F8
:100650008BE691E00E94CF008091980190E066E8DF
:1006600071E04AE050E00E94210580E063E00E94D2
:10067000250186E891E00E94CF0080E065E00E94BD
:10068000250180E091E00E94CF008091900190E0F0
:100690006BE871E04AE050E00E94210580E066E0EE
:1006A0000E9425018BE891E00E94CF0080E067E086
:1006B0000E94250187E191E00E94CF00809197017F
:1006C00090E061E871E04AE050E00E94210580E09E
:1006D0006BE00E94250181E891E00E94CF0080E05C
:1006E0006DE00E94250180E091E00E94CF008091A2
:1006F000990190E062E971E04AE050E00E94210532
:1007000080E06EE00E94250182E991E00E94CF0026
:1007100080E06FE00E94250189E191E00E94CF0016
:1007200080E49CE90197F1F708951F920F920FB6AC
:100730000F920BB60F9211242F933F934F935F9319
:100740006F937F938F939F93AF93BF93EF93FF9399
:1007500084E682BF80917D0190917E010196909305
:100760007E0180937D01883C910541F40E94D7026F
:100770000E94F70110927E0110927D01FF91EF918E
:10078000BF91AF919F918F917F916F915F914F91A9
:100790003F912F910F900BBE0F900FBE0F901F90A7
:1007A00018951F920F920FB60F920BB60F9211244D
:1007B0002F933F934F935F936F937F938F939F9369
:1007C000AF93BF93EF93FF9380917B019CB1E82F90
:1007D000F0E0E75BFE4F90838F5F80937B01803278
:1007E00008F443C0809149018234E9F580914A01BF
:1007F0008D34C9F59091570180E020915801AC01EA
:10080000420F511D9A015093800140937F018091C6
:100810007C01882321F481E080937C010EC040910B
:10082000690150916A01C901841B950B459728F015
:100830005093800140937F0104C030936A0120935C
:10084000690180917F01909180016BE671E04AE03F
:1008500050E00E94210581E065E00E9425018BE6C1
:1008600091E00E94CF0010927B01FF91EF91BF9128
:10087000AF919F918F917F916F915F914F913F9138
:100880002F910F900BBE0F900FBE0F901F901895D9
:100890000E94350181E00E94EC0080E060E00E944F
:1008A000250188E091E00E94CF0080E068E00E948E
:1008B00025018CE091E00E94CF0081E060E00E9481
:1008C000250181E191E00E94CF0013BE8CE982BF37
:1008D00081E087BF83B7876083BF85B5886685BDA4
:1008E00085B5856085BD8AE580937301909173011C
:1008F00087E8989FC001112464E873E00E940E0508
:10090000665F63BD78940895CF93DF93BF9A0E948A
:1009100048040E9498010E94D201C0EADFE0809161
:100920007801813009F063C030E040E020E018C079
:10093000A22FB0E0FD01EB58FE4F9081FD01E05C7D
:10094000FE4F8081981709F43F5FFD01EB58FE4F81
:100950009081AD5BBE4F8C91981709F44F5F2F5F6C
:1009600080917901281720F3323011F481E005C01D
:10097000433011F08EEF01C082E010927801813097
:1009800099F40E94B20184E690E0FE013197F1F7FC
:100990000197D9F781E00E94EC0080E060E00E94BE
:1009A00025018BE191E021C0823061F40E94C201F7
:1009B00081E00E94EC0080E060E00E94250185E279
:1009C00091E013C08E3F99F481E00E94EC0080E03A
:1009D00060E00E94250180E391E00E94CF0081E069
:1009E00060E00E94250185E791E00E94CF000E940F
:1009F000D20195CFAA1BBB1B51E107C0AA1FBB1F89
:100A0000A617B70710F0A61BB70B881F991F5A959A
:100A1000A9F780959095BC01CD01089597FB092E0B
:100A200007260AD077FD04D0E5DF06D000201AF4AF
:100A3000709561957F4F0895F6F7909581959F4F3A
:100A40000895FB019F01E8944230C4F04532B4F4AC
:100A50004A3029F497FB1EF4909581959F4F642F9F
:100A600077270E94FA04805D8A330CF0895D8193B8
:100A7000CB010097A1F716F45DE251931082C901F2
:100A80000C944205DC01FC01672F71917723E1F79B
:100A9000329704C07C916D9370836291AE17BF074B
:080AA000C8F30895F894FFCF9C
:100AA8002E004572726F7200484D3D0054503D2033
:100AB80000447573743D00250043005475726E2020
:100AC8004F6E2121005475726E204F6666212100F9
:100AD800436F6D6D616E64204572726F72212100E3
:080AE8006F6E006F66660000EE
:00000001FF
