:100000000C9446000C9465000C9465000C946500FB
:100010000C9465000C9465000C9465000C946500CC
:100020000C9465000C9465000C9465000C946500BC
:100030000C9465000C9465000C9465000C946500AC
:100040000C947A020C9465000C94BA020C9465002E
:100050000C9465000C9465000C9465000C9465008C
:100060000C9465000C9465000C9465000C9465007C
:100070000C9465000C9465000C9467000C9465006A
:100080000C9465000C9465000C94650011241FBE4F
:10009000CFEFD0E1DEBFCDBF11E0A0E0B1E0EEE1F7
:1000A000FAE000E00BBF02C007900D92A834B10740
:1000B000D9F711E0A8E4B1E001C01D92A639B1075B
:1000C000E1F70E9459030C940D050C9400001F9257
:1000D0000F920FB60F920BB60F9211248F939F932E
:1000E000EF93FF9380919C0080936E0180916E014D
:1000F0008E3279F080917401E82FF0E090916E01DA
:10010000E159FE4F90838F5F8093740110927201CA
:100110000DC080916E018E3249F4809174018093FC
:1001200073011092740181E080937201FF91EF914D
:100130009F918F910F900BBE0F900FBE0F901F904D
:100140001895BF9A08951BB828E12AB996E09093B4
:1001500095001092900087E689B9579A10929B00FB
:10016000EAE9F0E0208390939D001092980080933C
:100170009900808180688083089510926D0190912C
:100180006D0187E8989FC001112464E873E00E9424
:10019000C904665F63BD089584EB80936D019091FF
:1001A0006D0187E8989FC001112464E873E00E9404
:1001B000C904665F63BD0895982F80919B0085FFF9
:1001C000FCCF90939C000895FC0107C080919B0098
:1001D00085FFFCCF319690939C0090819923B1F7D5
:1001E00008958BE791E00E94E40080919B0085FFD9
:1001F000FCCF8EE280939C008CE891E00E94E400AA
:1002000080919B0085FFFCCF8CE280939C0080E86E
:1002100091E00E94E40080919B0085FFFCCF8EE27C
:1002200080939C0085E891E00E94E400089589E7AE
:1002300091E00E94E40008950F931F93CF93DF9302
:100240009C018B01109268011092690110926A0161
:1002500010926B0110926C01C0E0D0E0C901B801AE
:100260000E94B504FE01E859FE4F80832196C90122
:10027000B8010E94B5049B016115710579F7DF9102
:10028000CF911F910F9108958A3010F4805D0895E9
:10029000895C089520EA3FE004C0F9013197F1F745
:1002A00001970097D1F7089535E004C0232F2A95D0
:1002B000F1F701970097D1F708951F93162F6AE081
:1002C00070E00E941C01112381F1163010F015E03E
:1002D00002C0153049F480916C018A3010F4805DC1
:1002E00001C0895C0E940C04143048F080916B01BD
:1002F0008A3010F4805D01C0895C0E940C041330C8
:1003000048F080916A018A3010F4805D01C0895CF8
:100310000E940C04113049F0809169018A3010F478
:10032000805D01C0895C0E940C04809168018A3064
:1003300010F4805D01C0895C0E940C041F91089537
:100340006AE070E00E941C0180916A018A3010F41A
:10035000805D01C0895C0E940C04809169018A3033
:1003600010F4805D01C0895C0E940C0480E091E083
:100370000E942804809168018A3010F4805D01C0D9
:10038000895C0E940C0408950E94C0030E94D0035F
:100390000E94D803809392010E94D80380938A011F
:1003A0000E94D803809391010E94D8038093930107
:1003B0000E94D80380938B0140918A012091920181
:1003C00030E0240F311D40919101240F311D4091E7
:1003D0009301240F311D90E02817390739F080E090
:1003E00060E00E947E0482E091E07DC081E00E9496
:1003F000450480E060E00E947E0488E091E00E9475
:10040000280480E068E00E947E048CE091E00E9475
:10041000280481E060E00E947E0481E191E00E9476
:1004200028048091920190E060E871E04AE050E099
:100430000E94DC0480E063E00E947E0480E891E09A
:100440000E94280480E065E00E947E0480E091E044
:100450000E94280480918A0190E065E871E04AE0FA
:1004600050E00E94DC0480E066E00E947E0485E8A3
:1004700091E00E94280480E067E00E947E0487E10A
:1004800091E00E9428048091910190E06BE771E077
:100490004AE050E00E94DC0480E06BE00E947E04B1
:1004A0008BE791E00E94280480E06DE00E947E04CA
:1004B00080E091E00E9428048091930190E06CE834
:1004C00071E04AE050E00E94DC0480E06EE00E94AF
:1004D0007E048CE891E00E94280480E06FE00E9496
:1004E0007E0489E191E00E94280480E49CE9019760
:1004F000F1F708951F920F920FB60F920BB60F925D
:1005000011242F933F934F935F936F937F938F9318
:100510009F93AF93BF93EF93FF9384E682BF809145
:1005200076019091770101969093770180937601FF
:100530005798883C910559F40E94C4010E94F1002B
:100540000E941701579A1092770110927601FF913D
:10055000EF91BF91AF919F918F917F916F915F913B
:100560004F913F912F910F900BBE0F900FBE0F90A8
:100570001F9018951F920F920FB60F920BB60F9205
:1005800011242F933F934F935F936F937F938F9398
:100590009F93AF93BF93EF93FF93809175019CB1AD
:1005A000E82FF0E0E85BFE4F90838F5F809375014A
:1005B000803280F180914801823431F58091490187
:1005C0008D3411F58091500190E069E771E04AE0C7
:1005D00050E00E94DC048091510190E064E971E0F8
:1005E0004AE050E00E94DC0481E065E00E947E0465
:1005F00089E791E00E94280481E067E00E947E0480
:1006000084E991E00E942804E0E0F0E0E85BFE4F1E
:100610001192FECFFF91EF91BF91AF919F918F917A
:100620007F916F915F914F913F912F910F900BBEF2
:100630000F900FBE0F901F9018950E948E0481E0BE
:100640000E94450480E060E00E947E0488E091E022
:100650000E94280480E068E00E947E048CE091E023
:100660000E94280481E060E00E947E0481E191E024
:100670000E94280413BE8CE982BF81E087BF83B744
:10068000876083BF85B5886685BD85B5856085BD76
:100690008AE580936D0190916D0187E8989FC00174
:1006A000112464E873E00E94C904665F63BD789416
:1006B0000895BF9A0E941D030E94A30080917201B9
:1006C0008130E1F730E040E020E018C0A22FB0E038
:1006D000FD01E159FE4F9081FD01E05CFE4F8081FC
:1006E000981709F43F5FFD01E159FE4F9081AD5B22
:1006F000BE4F8C91981709F44F5F2F5F8091730163
:10070000281720F3323011F481E005C0433011F096
:100710008EEF01C082E010927201813061F40E947C
:10072000BD0081E00E94450480E060E00E947E04FC
:100730008BE191E022C0823061F40E94CC0081E024
:100740000E94450480E060E00E947E0485E291E022
:1007500014C08E3F09F0B2CF81E00E94450480E0D2
:1007600060E00E947E0480E391E00E94280481E022
:1007700060E00E947E048FE691E00E9428049ECFF4
:100780008F9A979888EC90E020E931E0F901319751
:10079000F1F70197D9F7979A85ED8A95F1F70895C2
:1007A0008F988799FECF879BFECF8799FECF0895BC
:1007B0008091780120E030E040EA879BFECF942FC3
:1007C0009A95F1F7879B03C0880F816001C0880F5D
:1007D0008799FECF2F5F3F4F2830310571F7809307
:1007E000780108958091780120E030E040EA879B0D
:1007F000FECF942F9A95F1F7879B03C0880F8160F5
:1008000001C0880F8799FECF2F5F3F4F22303105FF
:1008100071F780937801089595E3292F2A95F1F7D0
:10082000292F2A95F1F7292F2A95F1F7292F2A95B3
:10083000F1F79A95F1F7982F907F956095BB9B7F84
:1008400095BB8295807F856085BB8B7F85BB089536
:10085000CF93DF93EC0103C00E940C0421968881A2
:100860008823D1F7DF91CF910895982F907F9460DE
:1008700095BB9B7F95BB8295807F846085BB8B7F7A
:1008800085BB85E08A95F1F708951F93182F85E3BE
:10089000982F9A95F1F7982F9A95F1F7982F9A95A6
:1008A000F1F7982F9A95F1F78A95F1F7812F0E9429
:1008B00035041150123020F480E49FE10197F1F7E4
:1008C0001F9108950F931F93CF93DF938B01880F90
:1008D000880F880F80640E944504C0E0D0E0F801D2
:1008E000EC0FFD1F80810E940C042196C830D105B9
:1008F000B1F7DF91CF911F910F910895882349F0AF
:10090000813011F4605C05C0823011F4605F01C079
:10091000605B862F80680E94450408958FEF84BB3A
:1009200080E69AEE0197F1F780E30E94350480E2B9
:100930009EE40197F1F780E30E94350480EA9FE08E
:100940000197F1F782E30E94350488E20E94450492
:1009500088E00E94450481E00E94450486E00E94F0
:1009600045048CE00E9445040895AA1BBB1B51E17D
:1009700007C0AA1FBB1FA617B70710F0A61BB70B0F
:10098000881F991F5A95A9F780959095BC01CD01B4
:10099000089597FB092E07260AD077FD04D0E5DFDE
:1009A00006D000201AF4709561957F4F0895F6F7F0
:1009B000909581959F4F0895FB019F01E8944230E7
:1009C000C4F04532B4F44A3029F497FB1EF49095F4
:1009D00081959F4F642F77270E94B504805D8A33ED
:1009E0000CF0895D8193CB010097A1F716F45DE2CD
:1009F00051931082C9010C94FD04DC01FC01672FA6
:100A000071917723E1F7329704C07C916D937083E5
:0E0A10006291AE17BF07C8F30895F894FFCFA8
:100A1E002E004572726F7200484D3D0054503D20BD
:100A2E0000447573743D00250043005475726E20AA
:100A3E004F6E2121005475726E204F666621210083
:100A4E00436F6D6D616E64204572726F722121006D
:080A5E006F6E006F6666000078
:00000001FF
