:100000000C9446000C9465000C9465000C946500FB
:100010000C9465000C9465000C9465000C946500CC
:100020000C9465000C9465000C9465000C946500BC
:100030000C9465000C9465000C9465000C946500AC
:100040000C942F020C9465000C9467000C946500CE
:100050000C9465000C9465000C9465000C9465008C
:100060000C9465000C9465000C9465000C9465007C
:100070000C9465000C9465000C9465000C9465006C
:100080000C9465000C9465000C94650011241FBE4F
:10009000CFEFD0E1DEBFCDBF11E0A0E0B1E0E8E3FB
:1000A000F8E000E00BBF02C007900D92A434B10746
:1000B000D9F711E0A4E4B1E001C01D92AC36B1075C
:1000C000E1F70E948A020C941A040C9400001F921B
:1000D0000F920FB60F920BB60F9211248F939F932E
:1000E000EF93FF938CB180934901809149018E3247
:1000F00079F080914F01E82FF0E090914901E65BA3
:10010000FE4F90838F5F80934F0110924D010DC081
:10011000809149018E3249F480914F0180934E01C4
:1001200010924F0181E080934D01FF91EF919F91DB
:100130008F910F900BBE0F900FBE0F901F901895D0
:10014000BC9AC49808951BB888E18AB986E0809368
:1001500095001092900087E689B908955D9BFECFC7
:100160008CB90895FC0104C05D9BFECF31968CB91B
:1001700080818823C9F7089583E591E00E94B20049
:100180005D9BFECF8EE28CB984E691E00E94B200C6
:100190005D9BFECF8CE28CB988E591E00E94B200B5
:1001A0005D9BFECF8EE28CB98DE591E00E94B2009E
:1001B00008950F931F93CF93DF939C018B011092AF
:1001C000440110924501109246011092470110928D
:1001D0004801C0E0D0E0C901B8010E94D503FE018A
:1001E000EC5BFE4F80832196C901B8010E94D503C4
:1001F0009B016115710579F7DF91CF911F910F91E7
:1002000008958A3010F4805D0895895C089520EA8D
:100210003FE004C0F9013197F1F701970097D1F75A
:10022000089535E004C0232F2A95F1F70197009730
:10023000D1F708951F93162F6AE070E00E94D9004D
:10024000112381F1163010F015E002C0153049F489
:10025000809148018A3010F4805D01C0895C0E9461
:10026000FA02143048F0809147018A3010F4805D22
:1002700001C0895C0E94FA02133048F08091460167
:100280008A3010F4805D01C0895C0E94FA0211304E
:1002900049F0809145018A3010F4805D01C0895C8D
:1002A0000E94FA02809144018A3010F4805D01C0FE
:1002B000895C0E94FA021F9108956AE070E00E9432
:1002C000D900809146018A3010F4805D01C0895CBC
:1002D0000E94FA02809145018A3010F4805D01C0CD
:1002E000895C0E94FA0280E091E00E9416038091EE
:1002F00044018A3010F4805D01C0895C0E94FA02DA
:1003000008950E94A3030E94B3030E94BB0380933D
:100310006A010E94BB03809362010E94BB03809329
:1003200069010E94BB0380936B010E94BB03809311
:1003300063014091620120916A0130E0240F311D78
:1003400040916901240F311D40916B01240F311D33
:1003500090E02817390739F080E060E00E946C03D4
:1003600082E091E075C081E00E94330380E060E0AC
:100370000E946C0388E091E00E94160381E060E037
:100380000E946C038DE091E00E94160380916A0147
:1003900090E068E571E04AE050E00E94E90380E007
:1003A00064E00E946C0388E591E00E94160380E0FF
:1003B00066E00E946C0380E091E00E941603809149
:1003C000620190E06DE571E04AE050E00E94E903CF
:1003D00080E067E00E946C038DE591E00E941603C7
:1003E00080E068E00E946C0383E191E00E941603C4
:1003F0008091690190E063E571E04AE050E00E947D
:10040000E90381E064E00E946C0383E591E00E94CF
:10041000160381E066E00E946C0380E091E00E9498
:10042000160380916B0190E064E671E04AE050E0D1
:100430000E94E90381E067E00E946C0384E691E09A
:100440000E94160381E068E00E946C0385E191E060
:100450000E94160380E49CE90197F1F708951F922A
:100460000F920FB60F920BB60F9211242F933F935A
:100470004F935F936F937F938F939F93AF93BF93AC
:10048000EF93FF9384E682BF8091500190915101D8
:1004900001969093510180935001845F914041F403
:1004A00010925101109250010E9481010E94BC00E3
:1004B000FF91EF91BF91AF919F918F917F916F913C
:1004C0005F914F913F912F910F900BBE0F900FBEF8
:1004D0000F901F9018950E947C0381E00E943303C7
:1004E00080E060E00E946C0388E091E00E941603C7
:1004F00081E060E00E946C038DE091E00E941603B1
:1005000013BE8CE982BF81E087BF789483B7876090
:1005100083BF0895D49ADC98BC9AC4980E946B0259
:100520001BB888E18AB986E080939500109290000C
:1005300087E689B9579A80914D018130E1F730E023
:1005400040E020E018C0A22FB0E0FD01E65BFE4FC6
:100550009081FD01E45CFE4F8081981709F43F5FB4
:10056000FD01E65BFE4F9081A15CBE4F8C91981718
:1005700009F44F5F2F5F80914E01281720F332302E
:1005800011F481E005C0433011F08EEF01C082E02C
:1005900010924D01813051F4DC9A0E94330380E0C7
:1005A00060E00E946C0387E191E021C0823059F441
:1005B000DC9881E00E94330380E060E00E946C03DD
:1005C00081E291E014C08E3F09F0B5CF81E00E9436
:1005D000330380E060E00E946C038CE291E00E94B3
:1005E000160381E060E00E946C038AE491E00E94BF
:1005F0001603A1CF95E3292F2A95F1F7292F2A95E4
:10060000F1F7292F2A95F1F7292F2A95F1F79A95D5
:10061000F1F7982F907F956095BB9B7F95BB829556
:10062000807F856085BB8B7F85BB0895CF93DF93EB
:10063000EC0103C00E94FA02219688818823D1F739
:10064000DF91CF910895982F907F946095BB9B7F09
:1006500095BB8295807F846085BB8B7F85BB85E061
:100660008A95F1F708951F93182F85E3982F9A958F
:10067000F1F7982F9A95F1F7982F9A95F1F7982F0F
:100680009A95F1F78A95F1F7812F0E942303115073
:10069000123020F480E49FE10197F1F71F91089553
:1006A0000F931F93CF93DF938B01880F880F880FD1
:1006B00080640E943303C0E0D0E0F801EC0FFD1F1E
:1006C00080810E94FA022196C830D105B1F7DF91EE
:1006D000CF911F910F910895882349F0813011F433
:1006E000605C05C0823011F4605F01C0605B862FE2
:1006F00080680E94330308958FEF84BB80E69AEEF2
:100700000197F1F780E30E94230380E29EE40197C2
:10071000F1F780E30E94230380EA9FE00197F1F75D
:1007200082E30E94230388E20E94330388E00E9450
:10073000330381E00E94330386E00E9433038CE0A0
:100740000E94330308958C9A949888EC90E020E9F5
:1007500031E0F9013197F1F70197D9F7949A85EDD6
:100760008A95F1F708958C988499FECF849BFECFEB
:100770008499FECF08958091520120E030E040EA54
:10078000849BFECF942F9A95F1F7849B03C0880F2A
:10079000816001C0880F8499FECF2F5F3F4F2830C2
:1007A000310571F7809352010895AA1BBB1B51E1DB
:1007B00007C0AA1FBB1FA617B70710F0A61BB70BD1
:1007C000881F991F5A95A9F780959095BC01CD0176
:1007D0000895FB019F01E8944230C4F04532B4F41F
:1007E0004A3029F497FB1EF4909581959F4F642F12
:1007F00077270E94D503805D8A330CF0895D819351
:10080000CB010097A1F716F45DE251931082C90164
:100810000C940A04DC01FC01672F71917723E1F746
:10082000329704C07C916D9370836291AE17BF07BD
:08083000C8F30895F894FFCF0E
:100838002E004572726F720048554D3D00544D5060
:100848003D2000250043005475726E204F6E212113
:10085800005475726E204F6666212100436F6D6DDE
:10086800616E64204572726F722121006F6E006F95
:0408780066660000B0
:00000001FF
